:020000040800F2
:100000008804002045010008250300082703000894
:100010002B0300082F030008330300080000000032
:10002000000000000000000000000000370300088E
:1000300039030008000000003B0300083D030008EE
:100040005F0100085F0100085F0100085F01000810
:100050005F0100085F0100085F0100085F01000800
:100060005F0100085F0100085F0100085F010008F0
:100070005F0100085F0100085F0100085F010008E0
:100080005F0100085F0100085F0100085F010008D0
:10009000450300085F0100085F0100085F010008D8
:1000A0005F0100085F0100085F0100085F010008B0
:1000B0005F0100085F0100085F0100085F010008A0
:1000C0005F0100085F0100085F0100085F01000890
:1000D0005F0100085F0100085F0100085F01000880
:1000E0005F0100085F0100085F0100085F01000870
:1000F0005F0100085F0100085F0100085F01000860
:100100005F0100085F0100085F0100085F0100084F
:100110005F0100085F0100085F0100085F0100083F
:100120005F0100085F0100085F0100085F0100082F
:10013000DFF80CD003F09AFF00480047690100087F
:10014000880400200648804706480047FEE7FEE78F
:10015000FEE7FEE7FEE7FEE7FEE7FEE7FEE7FEE777
:10016000033D00083101000808B500F0D1FA01F0A4
:10017000FFFE00F021F901F061FB01F031FE37A034
:1001800003F096FF00F0A2FA66E0002400BF2DE025
:1001900041F2143000F0A4FA39493A4802F052F919
:1001A00000BF39480068FF28FBD03848C07A38497A
:1001B00008603648007B374908601020052300900E
:1001C00033485A210268A52001F021FD10200523A3
:1001D0000090304846210268A52001F018FD2B4808
:1001E000027BC17A2CA003F063FF641C022CCFDBDE
:1001F000002400BF2DE041F2153000F071FA2049D3
:10020000204802F01FF900BF33480068FF28FBD0E8
:100210001E48C07A314908601C48007B304908609C
:100220001020052300902D48AF210268A52001F081
:10023000EEFC10200523009029489B210268A52090
:1002400001F0E5FC1148027BC17A26A003F030FFE3
:10025000641C022CCFDB00BF97E700000D0A20D5FD
:10026000E2CAC720A1B0D6F7BBFAB6CBA1B120B580
:10027000C4B7B4C0A1D0C5CFA2A3BA200D0A000054
:1002800050000020006400400000002064000020B6
:10029000080000200C0000200D0A20CAFDBEDDB6BB
:1002A000CEB5C4C4DAC8DD3ABDE1B5E331CAAAB6F9
:1002B000C820446174615B305D3D256420A3ACBD02
:1002C000E1B5E331CEC2B6C820446174615B315DF3
:1002D0003D25640D0A0000000400002010000020ED
:1002E000140000200D0A20CAFDBEDDB6CEB5C4C480
:1002F000DAC8DD3ABDE1B5E332CAAAB6C820446126
:1003000074615B305D3D256420A3ACBDE1B5E33293
:10031000CEC2B6C820446174615B315D3D25640D79
:100320000A000000704700BFFEE700BFFEE700BF05
:10033000FEE700BFFEE770477047704710B500F05A
:100340002EFA10BD10B5184A0021184802F06FF9B6
:100350001548406841F2143188420BD11248007AA6
:10036000042807D11048807A022803D100201049C0
:10037000086002E0FF200E4908600B48406841F227
:10038000153188420BD10848007A042807D1064865
:10039000807A022803D100200649086002E0FF208D
:1003A0000449086010BD00006400002000640040A3
:1003B000000000200400002000B585B0012144F2B7
:1003C000040003F0C7F94FF40070ADF810001820D6
:1003D0008DF8130003208DF8120004A9754802F06F
:1003E000FDFE4FF48060ADF8100004208DF813007E
:1003F00004A9704802F0F2FE4FF4E13000900020B2
:10040000ADF80400ADF80600ADF80800ADF80C003A
:100410000C20ADF80A006946674803F042FA012152
:10042000654803F0CAFA05B000BD70B504460D4634
:10043000E1B2614803F02EFB00BF5F48008800F086
:1004400080000028F9D0204670BDF0B503460D4667
:100450001646002729460A2E03D000200870284699
:10046000F0BD33B9302001F8010B00200870284698
:10047000F6E7002B03DA2D2001F8010B5B4242F274
:1004800010720DE093FBF2F404B937B104F13000BF
:1004900001F8010B04FB123301270A2092FBF0F252
:1004A000002AEFDC002008702846D9E70FB470B5A9
:1004B00086B006460CA8019073E00B9800785C2883
:1004C0001CD10B98401C0B9000786E2809D0722824
:1004D0000FD10D21304603F0DDFA0B98401C0B9034
:1004E0000BE00A21304603F0D5FA0B98401C0B9024
:1004F00003E00B98401C0B9000BF4BE00B9800787A
:10050000252840D10B98401C0B900078642818D007
:10051000732833D1019810C801900BE02178304640
:1005200003F0B8FA00BF8021304603F021FB002819
:10053000F9D0641C20780028F0D10B98401C0B9057
:1005400020E0019820C801900A2202A92846FFF75E
:100550007CFF02AC0BE02178304603F09BFA00BF31
:100560008021304603F004FB0028F9D0641C207879
:100570000028F0D10B98401C0B9003E00B98401C16
:100580000B9000BF06E00B9810F8011B0B90304653
:1005900003F080FA00BF8021304603F0E9FA00281A
:1005A000F9D00B980078002887D106B070BC5DF8B0
:1005B00014FB0000000801400038014008B501218B
:1005C000092003F0C7F80121480603F0D0F8012103
:1005D0004FF4EA1002F0D3FE4FF48070ADF8000043
:1005E00048208DF8030003208DF802006946454835
:1005F00002F0F4FD4FF40070ADF8000018208DF803
:10060000030003208DF8020069463E4802F0E6FD33
:1006100008BD08B54FF4C06001F014FD14208DF83A
:10062000000000208DF801008DF8020001208DF8F7
:100630000300684601F00BFD08BD0EB5324801F01D
:100640006FFD684601F090FE00208DF80600012045
:100650008DF807008DF8080000208DF809008DF84E
:100660000A008DF80B008DF8020001208DF80300C0
:1006700005208DF8040002208DF805000420ADF857
:1006800000006946204801F064FD0EBD1FB5002042
:100690008DF80A008DF80B0001208DF80C00002069
:1006A000ADF80000ADF80200ADF80400ADF80600AA
:1006B000ADF8080001208DF80D00684601F0D3FD6B
:1006C00001220221104802F0CDF81FBD10B5FFF73E
:1006D00075FFFFF79EFFFFF7B0FFFFF7D7FF10BDD5
:1006E00000210A4A1160114648600421117200215C
:1006F000517202219172AB21D172CD2203490A734A
:1007000070470000000C01400064004050000020D1
:1007100030B527480068274AB0FBF2F1B1F1807F7D
:1007200001D301201DE021F07F40401E4FF0E02268
:10073000506150170F22002807DA13071D0E1E4BB9
:1007400000F00F04241F1D5503E013071C0E1B4B64
:100750001C5400BF00204FF0E02290610720106180
:10076000002008B100BFFEE74FF0E020006920F054
:1007700001004FF0E021086130BD01B5104900983B
:1007800008604FF0E020006940F001004FF0E021E8
:10079000086100BF0A4800680028FBD108BD08486E
:1007A000006820B106480068401E0549086070478F
:1007B00038000020A086010018ED00E000E400E011
:1007C000180000204FF0D841088070474FF0D84102
:1007D0004880704708B54FF0D84040880090BDF879
:1007E000000008BD4FF0D84210805180704701468C
:1007F0004FF0D840018040884FF0D8404088704783
:10080000FC4800894FF0D841088070474FF0D8412C
:100810004880704730B5014601F01F04C1F345130D
:10082000CA0AE50205EB43151544A8B230BD00BF66
:100830000100A0F10102D0B2FAD1704710B5034611
:100840000C46EC48808849F24131884205D0E9489D
:10085000808845F21031884214D1E6494889FFF773
:10086000B1FF1812FFF7B2FFD8B2FFF7AFFFE149AF
:100870008889FFF7A7FF2012FFF7A8FFE0B2FFF774
:10088000A5FFABE0DB48808846F6040188421DD115
:10089000D8488079012804D1D6480088401EC01A63
:1008A00083B2D4494889FFF78DFF1812FFF78EFFF6
:1008B000D8B2FFF78BFFCF498889FFF783FF20125B
:1008C000FFF784FFE0B2FFF781FF87E0C948808827
:1008D00041F66311884247D1C6488079A8B9C54816
:1008E0000088401EC01A83B2C2494889FFF76AFFD8
:1008F0000020FFF76BFF0020FFF768FF1812FFF7DB
:1009000065FFD8B2FFF762FF16E0BA494889FFF7E2
:1009100059FF1812FFF75AFFD8B2FFF757FFB54932
:100920000988491EC1F30F20FFF750FFB14909782C
:10093000491EC8B2FFF74AFFAE498889FFF742FF58
:100940002012FFF743FFE0B2FFF740FFA9494988B3
:10095000491EC1F30F20FFF739FFA6498978491EC8
:10096000C8B2FFF733FF39E0A248808845F2105142
:10097000884220D19F494889FFF724FF1812FFF7CA
:1009800025FF9C494989491C88B2FFF71BFFD8B253
:10099000FFF71CFF97498889FFF714FF2012FFF724
:1009A00015FF94498989491C88B2FFF70BFFE0B213
:1009B000FFF70CFF12E08F488079012804D18D48A1
:1009C0000088401EC01A83B28A4948891946FFF739
:1009D00009FF884988892146FFF704FF10BD2DE9EA
:1009E000F04105460E4600240027A04681480088B5
:1009F000A84203DD7F484088B04202DC0020BDE809
:100A0000F08131462846FFF719FF7A48808849F27D
:100A10004131884211D07748808846F604018842E7
:100A20000BD07448808845F21031884205D0714857
:100A3000808841F66311884203D12E20FFF7C2FE61
:100A40000DE06C48808845F21051884204D14FF483
:100A50003850FFF7B7FE02E02220FFF7B3FE6548EB
:100A6000808849F22031884202D10220FFF7DFFE60
:100A7000FFF7B0FE04465F48808841F66311884264
:100A800001D12046BBE70220FFF7D1FEFFF7A2FE0F
:100A900004465848808849F2413188420BD0554875
:100AA000808845F21031884205D05248808845F24E
:100AB000105188420AD10220FFF7B9FEFFF78AFEE3
:100AC0008046E7B24FF6FF7000EA07274948808862
:100AD00049F22531884216D04648808844F2355183
:100AE000884210D043488088091F88420BD0414873
:100AF00080884BF20551884205D03E4880884CF2F0
:100B00000551884201D1204679E73A48808849F268
:100B1000413188420BD03748808845F210318842F5
:100B200005D03448808845F21051884207D1E01240
:100B3000C002B91240EA411040EAE8205FE72046CF
:100B4000FFF768FE5BE700B52A48808849F241312B
:100B5000884211D02748808846F6040188420BD08D
:100B60002448808845F21031884205D02148808889
:100B700041F66311884203D12920FFF723FE0FE0DD
:100B80001C48808845F21051884204D14FF424500B
:100B9000FFF718FE04E040F273110720FFF722FE72
:100BA00000BD00B51348808849F24131884211D018
:100BB0001048808846F6040188420BD00D48808892
:100BC00045F21031884205D00A48808841F6631109
:100BD000884203D12820FFF7F5FD11E00548808801
:100BE00045F21051884207D14FF42050FFF7EAFD3B
:100BF00006E000007800002000210720FFF7F2FD4A
:100C000000BD70B5044600230026FD488079012808
:100C10000BD1FB48808846F60401884205D0F8488D
:100C2000808841F66311884208D1F5488079F0B98F
:100C3000F348808841F66311884218D1082C15D2F8
:100C4000DFE804F00406080A0C0E101206240DE07A
:100C500007240BE0042409E0052407E0012405E053
:100C6000002403E0032401E0022400BF00BFE448A5
:100C7000808849F24131884217D0E148808846F6A1
:100C80000401884211D0DE48808845F21031884244
:100C90000BD0DB48808845F21051884205D0D848F7
:100CA000808841F6631188427ED1082C1CD2DFE88F
:100CB00004F00406090C0F12151800BF14E043F0ED
:100CC000800311E043F040030EE043F0C0030BE06B
:100CD00043F0200308E043F0600305E043F0A00385
:100CE00002E043F0E00300BF00BFC548808845F242
:100CF0001051884202D14FF4585600E03626C048C1
:100D0000808845F2103188420DD0BD48808845F278
:100D10001051884207D0BA48808841F66311884252
:100D200001D043F00803B648808846F604018842A3
:100D300001D143F0020319463046FFF753FDB04896
:100D4000808841F6631188421DD003F0200068B10D
:100D5000AB480088AA494988884214DAA84805881F
:100D60004088A7490880084645800CE0A4480088D0
:100D7000A3494988884206DDA14805884088A049E2
:100D80000880084645809E48808845F21051884278
:100D900054D19B494889FFF715FD0020FFF716FD48
:100DA00097494989491C00E077E088B2FFF70AFDBE
:100DB0000020FFF70BFD92494989891C88B2FFF793
:100DC00001FD8F490988491EC1F30F20FFF7FEFC82
:100DD0008B494989C91C88B2FFF7F4FC8849097816
:100DE000491EC8B2FFF7F2FC85498889FFF7EAFC83
:100DF0000020FFF7EBFC82498989491C88B2FFF784
:100E0000E1FC0020FFF7E2FC7D498989891C88B25A
:100E1000FFF7D8FC7A494988491EC1F30F20FFF734
:100E2000D5FC77498989C91C88B2FFF7CBFC744986
:100E30008978491EC8B2FFF7C9FC55E07049488956
:100E4000FFF7C0FC0020FFF7C1FC0020FFF7BEFC4D
:100E50006B490988491EC1F30F20FFF7B7FC6849A9
:100E60000978491EC8B2FFF7B1FC65498889FFF7C8
:100E7000A9FC0020FFF7AAFC0020FFF7A7FC6049AF
:100E80004988491EC1F30F20FFF7A0FC5C4989780F
:100E9000491EC8B2FFF79AFC26E0082C1CD2DFE8F6
:100EA00004F004070A0D0F12151843F0300313E085
:100EB00043F0100310E043F020030DE000BF0BE00F
:100EC00043F0380308E043F0280305E043F018033B
:100ED00002E043F0080300BF00BF032643F4805341
:100EE00019463046FFF77EFC70BD30B504460D460E
:100EF00029462046FFF7A2FCFFF782FC4148008804
:100F00004FF0D841488030BD30B503460C461546F9
:100F10003B48808849F24131884205D03848808872
:100F200045F21031884214D135494889FFF74AFC0F
:100F30001812FFF74BFCD8B2FFF748FC30498889FC
:100F4000FFF740FC2012FFF741FCE0B2FFF73EFC48
:100F500091E02B48808845F21051884220D12849E1
:100F60004889FFF72FFC1812FFF730FC2449498904
:100F7000491C88B2FFF726FCD8B2FFF727FC2049AE
:100F80008889FFF71FFC2012FFF720FC1C49898984
:100F9000491C88B2FFF716FCE0B2FFF717FC6AE0C5
:100FA0001748808841F6631188422DD11448807912
:100FB00020B913480088401EC01A83B210494889DE
:100FC000FFF700FC1812FFF701FCD8B2FFF7FEFB99
:100FD0001812FFF7FBFBD8B2FFF7F8FB0849888926
:100FE000FFF7F0FB2012FFF7F1FBE0B2FFF7EEFB9B
:100FF0002012FFF7EBFBE0B2FFF7E8FB3BE000005D
:10100000780000201C000020FE48808846F604017D
:1010100088421DD1FB488079012804D1F948008815
:10102000401EC01A83B2F7494889FFF7CBFB18125C
:10103000FFF7CCFBD8B2FFF7C9FBF2498889FFF76D
:10104000C1FB2012FFF7C2FBE0B2FFF7BFFB12E0CB
:10105000EC488079012804D1EA480088401EC01A73
:1010600083B2E84948891946FFF7BCFBE5498889FE
:101070002146FFF7B7FBE34800894FF0D8410880CD
:101080000846458030BD2DE9F0470446BE20FFF7F5
:1010900099FB0520FFF79AFB204602F025FF074643
:1010A0004FF06632D84B02F0ADFE054602F029FF44
:1010B0001FFA80F94846FFF789FB0120FFF786FBFE
:1010C000FF20FFF783FB0020FFF780FB0020FFF7E6
:1010D0007DFBBDE8F08710B50446002C66D1C949F8
:1010E0008871F02008804FF4A070488008468088FE
:1010F00049F2413188420BD0C248808846F604014B
:10110000884205D0BF48808845F2103188421AD104
:101110002C20BC4908812A2048812B208881084640
:10112000808846F60401884205D0B648808845F29A
:101130001031884206D14FF4A070B24908804FF4B4
:10114000F0704880A1E0AF48808845F21051884295
:1011500010D14FF43050AB4908814FF428504881EA
:101160004FF42C5088814FF4F07008804FF4487091
:1011700048808AE0A348808841F6631188420DD1F7
:101180002C20A04908812B2048812A2088814FF4F7
:10119000F07008804FF44870488076E0222099492A
:1011A000088120204881212088816EE00120954916
:1011B00088714FF4A0700880F0204880084680882D
:1011C00049F24131884205D08E48808845F210317D
:1011D000884207D12C208B4908812A2048812B2066
:1011E00088813FE08748808846F60401884207D11D
:1011F0002C20844908812B2048812A20888131E0D5
:101200008048808845F21051884210D14FF4305008
:101210007C4908814FF4285048814FF42C50888134
:101220004FF4487008804FF4F07048801AE0754819
:10123000808841F6631188420DD12C2071490881C4
:101240002A2048812B2088814FF4487008804FF471
:10125000F070488006E022206A49088121204881F8
:10126000202088816748808846F60401884205D09E
:101270006448808845F21031884206D14FF4F070FE
:10128000604908804FF4A07048800020FFF7B9FC47
:1012900010BD2DE9F04F86B004460D4690469946A4
:1012A00004EB0800401E86B205EB0900401E87B221
:1012B0005448808849F24131884215D0514880888D
:1012C00045F2103188420FD04E48808846F604011E
:1012D000884209D04B488079012826D14948808826
:1012E00041F66311884220D146494889FFF76AFADE
:1012F0002012FFF76BFAE0B2FFF768FA3012FFF73F
:1013000065FAF0B2FFF762FA3E498889FFF75AFAA8
:101310002812FFF75BFAE8B2FFF758FA3812FFF726
:1013200055FAF8B2FFF752FABDE03648808841F628
:101330006311884234D133480088A0EB0800001BB9
:1013400084B205EB0900401E1FFA80F92D49488937
:10135000FFF738FA2012FFF739FAE0B2FFF736FA52
:1013600004EB0801491EC1F30F20FFF72FFA04EB2D
:101370000801491EC8B2FFF729FA22498889FFF7F8
:1013800021FA2812FFF722FAE8B2FFF71FFA4FEA14
:101390002920FFF71BFA09F0FF00FFF717FA82E098
:1013A0001848808845F21051884249D1154948892A
:1013B000FFF708FA2012FFF709FA12494989491C78
:1013C00088B2FFF7FFF9E0B2FFF700FA0D4949894B
:1013D000891C88B2FFF7F6F93012FFF7F7F90949CF
:1013E0004989C91C88B2FFF7EDF9F0B2FFF7EEF9B1
:1013F00004498889FFF7E6F92812FFF7E7F9014960
:10140000898903E07800002066660440491C88B2A0
:10141000FFF7D8F9E8B2FFF7D9F9FD498989891CA6
:1014200088B2FFF7CFF93812FFF7D0F9F849898968
:10143000C91C88B2FFF7C6F9F8B2FFF7C7F932E066
:10144000F348807901280ED1AA46BB46F0480088AF
:10145000801B401E80B20190ED480088001B401E9A
:1014600080B2009003E0A246B34601950097502059
:101470000590512004905220039053200290514631
:101480000598FFF7AFF959460498FFF7ABF90199B2
:101490000398FFF7A7F900990298FFF7A3F92946E7
:1014A0002046FFF7CBF906B0BDE8F08F08B5012163
:1014B000080202F042F901214FF4F27002F04AF9F9
:1014C0000220ADF8000010208DF8030003208DF8F5
:1014D00002006946CF4801F081FE4CF23370ADF84E
:1014E000000018208DF8030003208DF802006946E3
:1014F000C94801F073FE4FF68070ADF80000182067
:101500008DF8030003208DF802006946C34801F0FE
:1015100065FE0120ADF8000018208DF803000320BF
:101520008DF802006946BE4801F058FE4FF4805025
:10153000ADF8000018208DF8030003208DF802009C
:101540006946B84801F04AFE08BD00B59DB00120CB
:101550000790002008900F20099000200A900B901F
:101560000C900D90009001900320029000200390B9
:1015700004900590069006200E9000200F90109089
:101580001020119000201290149013901590169036
:101590004FF480501790002018904FF4804019901D
:1015A00000201A9007A81B90CDF870D00EA801F06B
:1015B000FBFA0121062001F05FFC1DB000BD00B563
:1015C00047F6F001E520FFF70DF94FF48071012097
:1015D000FFF708F94FF4E0610220FFF703F941F249
:1015E00030010320FFF7FEF800210420FFF7FAF88E
:1015F00040F202210820FFF7F5F800210920FFF74B
:10160000F1F800210A20FFF7EDF800210C20FFF788
:10161000E9F800210D20FFF7E5F800210F20FFF782
:10162000E1F800211020FFF7DDF807211120FFF776
:10163000D9F800211220FFF7D5F800211320FFF779
:10164000D1F800210720FFF7CDF841F2906110207A
:10165000FFF7C8F840F227211120FFF7C3F89D21BA
:101660001220FFF7BFF84FF4C8511320FFF7BAF864
:1016700025212920FFF7B6F80D212B20FFF7B2F81E
:1016800007213020FFF7AEF840F203313120FFF799
:10169000A9F803213220FFF7A5F840F206213520F2
:1016A000FFF7A0F808213620FFF79CF840F206412A
:1016B0003720FFF797F84FF441713820FFF792F881
:1016C00007213920FFF78EF840F202613C20FFF736
:1016D00089F808213D20FFF785F800215020FFF709
:1016E00081F8EF215120FFF77DF800215220FFF70C
:1016F00079F840F23F115320FFF774F84FF4274177
:101700006020FFF76FF801216120FFF76BF80021DF
:101710006A20FFF767F800218020FFF763F80021B7
:101720008120FFF75FF800218220FFF75BF800219E
:101730008320FFF757F800218420FFF753F800219A
:101740008520FFF74FF810219020FFF74BF84FF45A
:10175000C0619220FFF746F840F233110720FFF7EF
:1017600041F822210020FFF73DF800BD70B5044686
:10177000002627480588408845432548808846F646
:101780000401884216D122488079012812D1002014
:101790001F4988712A2048812B2088810021084612
:1017A000FFF74CF801201A4988712B2048812A2024
:1017B000888103E000210846FFF740F8FFF720F892
:1017C000002603E04FF0D8404480761CAE42F9D3A7
:1017D00070BD10B5322000F008FC0020FFF707F8BC
:1017E0000B498880084681880FA002F061FCFFF752
:1017F000E6FE0020FFF76FFC01200E4908604FF65F
:10180000FF70FFF7B3FF00200B49088010BD0000F8
:101810007800002000080140001401400018014039
:10182000001C0140002001404C43445F494425789E
:101830000A000000840121421C00002010B5FFF7BF
:1018400035FEFFF782FEFFF7C4FF0120FFF743FCE0
:1018500010BD2DE9FC4F05460E4617469846DDF8AB
:101860002C9000200190FE48808846F604018842B2
:1018700029D1FB488079012825D1AB463546F84867
:101880000088C01B401E86B24746F5480088A0EB82
:101890000B00401E1FFA80F80020F14988712A20B1
:1018A00048812B20888143463A4631462846CDF868
:1018B0000090FFF7CEFF0120E94988712B20488175
:1018C0002A2088811DE0781B401C80B2019034469C
:1018D00015E021462846FEF7B1FFFEF791FF4FF0D5
:1018E000000A07E04FF0D840A0F802900AF101008A
:1018F0001FFA80FA01988245F4DB601C84B24445EB
:10190000E7DDBDE8FC8F2DE9F84F07460D46904610
:101910009946DDF828B0A8EB0700401C1FFA80FAB2
:10192000A9EB0500401C80B20090002415E02819A6
:1019300081B23846FEF782FFFEF762FF002608E01C
:1019400004FB0A603BF810004FF0D8414880701C3F
:1019500086B25645F4DB601C84B200988442E6DB14
:10196000BDE8F88F2DE9FF4F84B081468A460020FC
:10197000039002900698A0EB09050798A0EB0A06D1
:10198000CDF80490CDF800A0002D01DD012705E081
:101990000DB9002702E04FF0FF376D42002E02DD47
:1019A0004FF0010806E016B94FF0000802E04FF0D2
:1019B000FF387642B54201DD2C4600E034464FF058
:1019C000000B21E0009A91B2019A90B2FFF78DFAD4
:1019D0000398284403900298304402900398A04250
:1019E00005DD0398001B039001983844019002988C
:1019F000A04205DD0298001B029000984044009030
:101A00000BF101001FFA80FB601C8345DADD08B092
:101A1000BDE8F08FF0B504460D4616461F462B462E
:101A2000324629462046FFF79DFF3B46224629467F
:101A30002046FFF797FF3B46324639462046FFF7E0
:101A400091FF3B46324629463046FFF78BFFF0BDFB
:101A50002DE9F04306460F469046002445460320F4
:101A6000A0EB48093CE07A1B91B2321990B2FFF723
:101A70003CFA3A1B91B2721990B2FFF736FA3A1952
:101A800091B2721990B2FFF730FA7A1991B2321905
:101A900090B2FFF72AFA7A1991B2321B90B2FFF78F
:101AA00024FA3A1991B2721B90B2FFF71EFA7A1B10
:101AB00091B2321B90B2FFF718FA3A1B91B2721B27
:101AC00090B2FFF712FA641CB9F1000F03DAA0001C
:101AD000801D814404E0601B80000A3081446D1E3B
:101AE000AC42C0DDBDE8F0832DE9F84F80460E46DC
:101AF00017461C46B3462046E31704EB5373DB102E
:101B000021464FEAE47C04EB5C7C4FEAEC0CA4EB4E
:101B1000CC0CBCF1000F02D04FF0010C01E04FF0F3
:101B2000000C6344224604EBD27C4FEA6C0C03FBAE
:101B30000CF3DBB20093A7F12000C7B2002556E0FA
:101B40000C2C07D107EB4700464901EB800010F849
:101B5000059013E0102C05D1434800EB071010F856
:101B600005900BE0182C07D107EBC7003F4901EBAC
:101B7000800010F8059001E0BDE8F88F4FF0000AF2
:101B80002FE009F0800030B13948028831464046E4
:101B9000FFF7BAF907E00A9828B9364802883146B3
:101BA0004046FFF7B1F94FEA49604FEA1069701CEF
:101BB00086B22B484088B04200DCDDE7A6EB0B0084
:101BC000A0420AD15E4608F101001FFA80F82448BD
:101BD0000088404500DCCFE706E00AF1010000F094
:101BE000FF0ABAF1080FCCDB00BF681CC5B2009831
:101BF0008542A5DB00BFBFE710B50246012000E02B
:101C000050430B00A1F10104E1B2F9D110BD2DE95F
:101C1000FF4F81B0074691461E460E9D4FF0000AC9
:101C2000002446E0301B401EC1B20A20FFF7E4FF4B
:101C3000B9FBF0F00A21B0FBF1F201FB1208BAF196
:101C4000000F23D1701EA04220DDB8F1000F1BD180
:101C50000020AB4605EBDB71491001FB04710BE082
:101C600078000020AC43000820480008104E00080F
:101C70001C0000201E000020009088B22B4620226D
:101C80000299FFF731FF12E04FF0010A0020AB4646
:101C900005EBDB71491001FB0471009088B208F17B
:101CA0003001CAB22B460299FFF71EFF00BF601C2D
:101CB000C4B2B442B6DB05B0BDE8F08F2DE9FF4FEA
:101CC00082B0064692461F46DDE90F48002001908B
:101CD00000254DE0781B401EC1B20A20FFF78CFFA3
:101CE000BAFBF0F00A21B0FBF1F201FB12090198F6
:101CF00050BB781EA84227DDB9F1000F22D108F0B1
:101D0000800078B108F00100A34604EBDB714910B4
:101D100001FB0561009088B2234630220399FFF74A
:101D2000E3FE0EE008F00100A34604EBDB7149106E
:101D300001FB0561009088B2234620220399FFF73A
:101D4000D3FE13E00120019008F00100A34604EB4C
:101D5000DB71491001FB0561009088B209F1300187
:101D6000CAB223460399FFF7BFFE00BF681CC5B285
:101D7000BD42AFDB06B0BDE8F08F2DE9F847044661
:101D80000D4690469946DDE9096704F0FF0A08EB25
:101D900004001FFA80F809EB05001FFA80F916E02D
:101DA000444502DB5446A81985B24D4500DB14E0DA
:101DB000002000903A78334629462046FFF794FEEB
:101DC000304606EBD07104EB61018CB27F1C387891
:101DD0007E2802DC38782028E2DA00BFBDE8F887E8
:101DE0000CB54FF478404D4908801F204C490880BD
:101DF000FFF7BCFC4BA018210B464FF49B72CDE9BA
:101E0000001005211C20FFF7B8FF4AA018210B463F
:101E10004FF49B72CDE90010D2211C20FFF7ADFFDB
:101E2000232340F2271219461920FFF79BFD242394
:101E300040F2271219461920FFF794FD7A2340F249
:101E4000271219461920FFF78DFD792340F227123A
:101E500019461920FFF786FDCD2340F227121946B7
:101E60001920FFF77FFDCE2340F2271219461920D3
:101E7000FFF778FD0020294908807623A022282139
:101E80001046FFF76FFDC823A0227C211046FFF704
:101E900069FD4FF6FF70214908802AA010210B46EA
:101EA0009B22CDE9001032211920FFF766FF27A001
:101EB00010210B469B22CDE9001046211920FFF787
:101EC0005CFF26A010210B469B22CDE900105A2171
:101ED0001920FFF752FF24A010210B4640F22712D1
:101EE000CDE9001087211920FFF747FF17A0102127
:101EF0000B4640F22712CDE900109B211920FFF775
:101F00003CFF16A010210B4640F22712CDE900102D
:101F1000AF211920FFF731FF0CBD00001C0000208D
:101F20001E00002053544D33322043414E20425571
:101F3000530000006368656E736875616966656962
:101F4000200000004E6F6465313A200074656D70AA
:101F5000657261747572653A2000000068756D697C
:101F6000646974793A2000004E6F6465323A20004B
:101F700010B56FF0040000F0B4F82E4800682E4948
:101F8000B0FBF1F02D4908700846007800EB4001E5
:101F9000C1EBC0104FF6FF7101EAC000284908806C
:101FA00010BD0146254A12784A434FF0E0235A619A
:101FB00000229A611A46126942F001021A6100BFBA
:101FC0004FF0E022106900F001021AB100F48032F3
:101FD000002AF5D04FF0E022126922F001024FF002
:101FE000E0231A6100229A6170470146144A128860
:101FF0004A434FF0E0235A6100229A611A4612695F
:1020000042F001021A6100BF4FF0E022106900F0B7
:1020100001021AB100F48032002AF5D04FF0E0221C
:10202000126922F001024FF0E0231A6100229A6146
:10203000704700003800002000127A0020000020C5
:102040002200002031490143314A1160704770B5C8
:10205000002100230F22C47804B32D4C246804F41B
:10206000E064C4F5E064210AC1F10403CA40447885
:1020700004FA03F18478144021430901254C0678C1
:10208000A155047804F01F050124AC4005786D11BA
:10209000AD0005F1E025C5F8004109E0047804F041
:1020A0001F050124AC401C4D0678761145F82640EA
:1020B00070BD1A4A0A400243154B1B1F1A60704735
:1020C00039B1134A121D12680243114B1B1D1A60CD
:1020D00006E00F4A121D126882430D4B1B1D1A6049
:1020E0007047042808D14FF0E021096941F004014C
:1020F0004FF0E022116107E04FF0E021096921F083
:1021000004014FF0E0221161704700000000FA0561
:102110000CED00E000E400E080E100E080FFFF1F44
:1021200010B50446FE48844209D10121480601F059
:1021300038FB00214FF0007001F033FB08E0012173
:10214000880601F02EFB00214FF0806001F029FB92
:1021500010BD30B5024600200023146824F00204AC
:102160001460146844F00104146000E05B1C5468BF
:1021700004F001041CB94FF6FF74A342F6D1546871
:1021800004F001040CB900206CE08C79012C04D11E
:10219000146844F08004146003E0146824F08004A0
:1021A0001460CC79012C04D1146844F0400414600C
:1021B00003E0146824F0400414600C7A012C04D16C
:1021C000146844F02004146003E0146824F0200430
:1021D00014604C7A012C04D1146844F0100414608B
:1021E00003E0146824F0100414608C7A012C04D1EC
:1021F000146844F00804146003E0146824F0080430
:102200001460CC7A012C04D1146844F004041460E6
:1022100003E0146824F0040414608C78A407CD78DB
:1022200044EA05640D7944EA05444D7944EA0554CD
:102230000D886D1E2C43D461146824F001041460D1
:10224000002300E05B1C546804F001041CB14FF64D
:10225000FF74A342F6D1546804F001040CB10020CD
:1022600000E0012030BD10B50021837A012202FA7E
:1022700003F1AC4A126842F00102AA4B1A60A94A63
:102280001C3212688A43A74B1C331A60027BCAB9FE
:10229000A44A0C3212688A43A24B0C331A6042885B
:1022A000C38842EA03439F4A4032847A42F834307A
:1022B0000288838842EA03439A4A4032847A02EBD6
:1022C000C4025360027B012A19D1964A0C3212686B
:1022D0000A43944B0C331A604288038842EA034352
:1022E000904A4032847A42F83430C288838842EA85
:1022F00003438C4A4032847A02EBC4025360C27AB0
:102300003AB9884A121D12688A43864B1B1D1A600F
:1023100006E0844A121D12680A43824B1B1D1A6094
:10232000028932B97F4A143212688A437D4B1433D2
:102330001A600289012A06D17A4A143212680A43C5
:10234000784B14331A60427B012A06D1754A1C323D
:1023500012680A43734B1C331A60724A126822F0E7
:102360000102704B1A6010BD00218171C1710172B0
:1023700041728172C1728170C170032101710221A9
:1023800041710121018070476649096841F00101EE
:10239000644A11601146096843F60E729143614A1E
:1023A00011601146096841EA00211160114609686F
:1023B00021F001011160704721B1026842F48032BE
:1023C000026003E0026822F4803202607047E1B1EB
:1023D000026842F0800202604FF4C272125842F466
:1023E00080734FF4C27213504FF4CA72125842F401
:1023F00080734FF4CA7213504FF4D272125842F4E1
:1024000080734FF4D27213501BE0026822F08002F6
:1024100002604FF4C272125822F480734FF4C272F9
:1024200013504FF4CA72125822F480734FF4CA72D8
:1024300013504FF4D272125822F480734FF4D272B8
:102440001350704710B502460020936803F0806374
:10245000B3F1806F00D110E0936803F00063B3F133
:10246000006F01D1012008E0936803F08053B3F1BD
:10247000805F01D1022000E00420042879D002F519
:10248000C07303EB00131B6803F0010402F5C07373
:1024900003EB00131C600B7A7BB94B7A0C8843EA80
:1024A000445302F5C07404EB00142468234302F57E
:1024B000C07404EB0014236010E00B7A4C6843EA0C
:1024C000C4034C7A234302F5C07404EB001424685F
:1024D000234302F5C07404EB001423608B7A03F0ED
:1024E0000F038B7202F5C07303EB00135B6823F0DC
:1024F0000F0402F5C07303EB00135C6002F5C073B8
:1025000003EB00135B688C7A234302F5C07404EB81
:10251000001463608B7B1C064B7B44EA034403E09E
:1025200000640040006600400B7B44EA0323CC7A41
:10253000234302F5C07404EB0014A3608B7C1C06DB
:102540004B7C44EA03440B7C44EA0323CC7B2343C7
:1025500002F5C07404EB0014E36002F5C07303EBF2
:1025600000131B6843F0010402F5C07303EB001372
:102570001C6010BD10B50246002321B1012907D00F
:1025800002290FD109E09068F94C00EA04030BE03E
:102590009068F84C00EA040306E09068F64C00EA04
:1025A000040301E0002300BF00BFF44C181BA3424A
:1025B00016D007DC83B16FF08060184470B1022838
:1025C00018D111E0B0F5007F10D0ED4C204448B197
:1025D000B0F5003F0ED10BE002230DE000230BE02D
:1025E000002309E0002307E0012305E0012303E0C5
:1025F000012301E0002300BF00BFD8B210BD21B10C
:10260000012907D002290FD109E0826842F0800237
:1026100082600AE0826842F40042826005E08268DB
:1026200042F40002826000E000BF00BF704710B5B6
:1026300000F5D87303EB01131B6803F00403137256
:10264000137A53B900F5D87303EB01131B6840F2FA
:10265000FF7404EA5353136009E000F5D87303EBE9
:1026600001131B686FF0604404EAD303536000F564
:10267000D87303EB01131B6803F00203537200F5D8
:10268000D87303EB01135B6803F00F03937200F53B
:10269000D87303EB01135B681B0AD37400F5D8737E
:1026A00003EB01139B68D37200F5D87303EB01139E
:1026B0009B681C0A147300F5D87303EB01139B6825
:1026C0001C0C547300F5D87303EB01139B681B0EAD
:1026D000937300F5D87303EB0113DB68D37300F534
:1026E000D87303EB0113DB681C0A147400F5D8736C
:1026F00003EB0113DB681C0C547400F5D87303EB77
:102700000113DB681B0E937421B9C36843F02003E7
:10271000C36003E0036943F02003036110BD21B9E6
:10272000C26842F02002C26003E0026942F0200267
:10273000026170470246002019B9D36803F0030014
:1027400006E0012903D1136903F0030000E0002033
:10275000704710B502460B4600204FF6FF71BBB91B
:10276000146824F0020444F00104146000E0491EDF
:10277000546804F00304012C01D00029F7D15468F7
:1027800004F00304012C01D0002032E0012030E0ED
:10279000012B13D1146824F00304146000E0491ED7
:1027A000546804F003040CB10029F8D1546804F013
:1027B00003040CB100201CE001201AE0022B17D109
:1027C000146824F0010444F00204146000E0491E7F
:1027D000546804F00304022C01D00029F7D1546896
:1027E00004F00304022C01D0002002E0012000E0EC
:1027F000002010BD014600200A6822F0010242F0CC
:1028000002020A604A6802F00302022A00D1012093
:10281000704701464FF6FF7200200B6823F0020359
:102820000B6000E0521E4B6803F00203022B01D143
:10283000002AF7D14B6803F00203022B00D00120DD
:102840007047014600208A6902F070007047014617
:1028500000208A69100E7047014600208A69C2F381
:10286000074070471AB143690B43436102E0436973
:102870008B434361704710B50246002001F470039A
:1028800043B19369C1F3130423400BB101202DE040
:1028900000202BE001F0807343B15368C1F31304AF
:1028A00023400BB1012021E000201FE001F0006374
:1028B00043B19368C1F3130423400BB1012015E029
:1028C000002013E001F0007343B1D368C1F3130497
:1028D00023400BB1012009E0002007E01369C1F398
:1028E000130423400BB1012000E0002010BD0022A2
:1028F000244B994202D10023836111E0C1F31302FA
:1029000001F000730BB1C2600AE001F080630BB10B
:10291000026105E001F000630BB1826000E04260FB
:1029200070470246002002EA01030BB1012000E0DB
:102930000020704770B504460D46002660692840A7
:10294000002872D0B5F5807F69D01DDC082D42D0FB
:1029500006DC012D2DD0022D31D0042D7FD134E0A5
:10296000102D3ED0202D42D0402D78D145E00000E2
:102970000300000400030008000003100001000829
:102980000001FFF77000F030B5F5004F61D009DCB1
:10299000B5F5007F4AD0B5F5806F4DD0B5F5006F25
:1029A0005DD150E0B5F5803F2DD0B5F5003F56D153
:1029B0002FE0A0685549FFF7B4FF064651E0E068F4
:1029C0000321FFF7AEFF06464BE0E0680821FFF762
:1029D000A8FF064645E0E0681021FFF7A2FF064683
:1029E0003FE020690321FFF79CFF064639E020699C
:1029F0000821FFF796FF064633E020691021FFF714
:102A000090FF06462DE060680821FFF78AFF064622
:102A100027E060681021FFF784FF064621E0A069E7
:102A20000121FFF77EFF06461BE01BE0A0690221A3
:102A3000FFF777FF064614E0A0690421FFF771FF56
:102A400006460EE00BE0A0697021FFF76AFF06461C
:102A500007E060680421FFF764FF064601E00026F6
:102A600000BF00E00026304670BDB1F5007F3AD0CF
:102A70000FDC202928D006DC01291CD004291DD018
:102A8000082940D11DE0402921D0B1F5807F3AD1FD
:102A900026E0B1F5004F31D006DCB1F5806F25D0CE
:102AA000B1F5006F2FD124E0B1F5803F12D0B1F520
:102AB000003F28D111E0154A826025E00822C2605B
:102AC00022E01022C2601FE0082202611CE01022F6
:102AD000026119E00822426016E01022426013E011
:102AE0000422426010E0042242600DE004224260B1
:102AF0000AE0002282610422426005E00022826135
:102B00000422426000E000BF00BF704701010100E5
:102B100030B943F2DB028100A1F1C0410A6005E057
:102B200043F2D2028100A1F1C0410A606FF070420D
:102B3000411C8900A1F1C0410A608100A1F1C0419E
:102B4000C1F80421704710280AD118214FF0204203
:102B50001166402151664FF0FC319166D16610E05C
:102B60001821F74A116040214FF02042C2F884102A
:102B70004FF0FC31F24A083211604FF02042C2F8A7
:102B80008C1070471820EE4920310860002009069B
:102B9000C1F8A4004FF0FC30E94928310860091D54
:102BA0000860091D08607047D0E901121143C2682E
:102BB0001143026911434269114382691143C26999
:102BC0001143026A1143426A1143826A1143C26A85
:102BD0001143026B114302689200A2F1C0421160DE
:102BE000816808290BD101688900A1F1C0410968F9
:102BF00041F0400201688900A1F1C0410A60416BC7
:102C00000968426B526841EA0211426B926841EADC
:102C10000221426B928941EA0241426B128A41EAE7
:102C20000251426B127D41EA0261426B926911438B
:102C30000268521C9200A2F1C0421160C16AB1F553
:102C4000804F1BD1816B0968826B526841EA021187
:102C5000826B926841EA0221826B128A41EA025138
:102C6000826B127D41EA0261826B926911430268B4
:102C70009200A2F1C042C2F8041107E06FF0704266
:102C800001688900A1F1C041C1F80421704730B545
:102C9000002100220023446844F0080485682C4386
:102CA000C5682C4305692C43456944EA4524856978
:102CB00044EA4531C4692468C5696D6844EA05245D
:102CC000C5692D8944EA0544C5692D7B44EA05623E
:102CD000046A2468056A6D6844EA0524056A2D893A
:102CE00044EA0544056A2D7B44EA05630468102C18
:102CF00005D14FF020442166A266E36608E0904CBF
:102D000021604FF02044C4F888208D4C0C3423609F
:102D100030BD016841F01001426841EA42218268F9
:102D200041EA4231864A20321160C1680968C268AE
:102D3000526841EA0221C268128941EA0241C2682E
:102D4000127B41EA02617E4A2832116001690968FA
:102D50000269526841EA02210269128941EA02418C
:102D60000269127B41EA0261754A2C3211604169A5
:102D700009684269526841EA02214269128941EABE
:102D800002414269127B41EA02614FF02042C2F8DF
:102D9000B010704700210160022141600021816074
:102DA000C160016141618161C16101624FF4805183
:102DB0004162490081620021C16201630F21426BBF
:102DC0001160426B5160FF21426B91600F21426B99
:102DD000D160426B1161426B51610021426B916184
:102DE0000F21826B1160826B5160FF21826B9160B9
:102DF0000F21826BD160826B1161826B5161002166
:102E0000826B9161704710210160002141608160F7
:102E1000C160016141618161FC21C2691160C269C7
:102E20005160C2699160C269D160026A1160026A30
:102E30005160026A9160026AD160704700210160AE
:102E400041608160FC21C2681160C2685160C26843
:102E50009160C268D16002691160026951600269C3
:102E600091600269D16042691160426951604269B2
:102E700091604269D160704751B18200A2F1C042B5
:102E8000126842F001038200A2F1C042136009E01F
:102E90008200A2F1C04212682A4B1A408300A3F1BB
:102EA000C0431A60704799B1102808D14FF02042F2
:102EB000126E42F004024FF020431A661DE0204AD1
:102EC000126842F004024FF02043C3F8802014E05F
:102ED000102809D14FF02042126E1A4BDB1E1A4007
:102EE0004FF020431A6608E0154A1268154BDB1EA6
:102EF0001A404FF02043C3F88020704748B1104972
:102F00002031096841F004014FF02042C2F8A010BE
:102F100009E00B49203109680A4AD21E11404FF0DE
:102F20002042C2F8A0107047B9B110280CD14FF060
:102F30002042126E42F040024FF020431A661FE01A
:102F4000800000A0FEFF0F00724A126842F04002AB
:102F50004FF02043C3F8802012E0102808D14FF032
:102F60002042126E6C4B1A404FF020431A6607E065
:102F7000684A1268684B1A404FF02043C3F880201B
:102F8000704701460020102903D14FF02042506FB6
:102F900002E0604A14321068704710B5F2B1102890
:102FA00007D14FF020435B6E0B434FF02044636624
:102FB00032E0B0F5807F08D1564B1B1D1B680B43D8
:102FC0004FF02044C4F8843026E0524B24331B6871
:102FD0000B434FF02044C4F8A4301DE0102807D163
:102FE0004FF020435B6E8B434FF02044636613E049
:102FF000B0F5807F08D1474B1B1D1B688B434FF0FA
:103000002044C4F8843007E0424B24331B688B43D0
:103010004FF02044C4F8A43010BD10B50246002083
:103020000023102A03D14FF02044636E09E0B2F56B
:10303000807F03D1374C241D236802E0354C2434B3
:10304000236803EA01040CB1012000E0002010BD58
:10305000102807D14FF02042526E8A434FF0204390
:103060005A6613E0B0F5807F08D12A4A121D126813
:103070008A434FF02043C3F8842007E0254A2432D6
:1030800012688A434FF02043C3F8A420704770B5FC
:1030900002460020002300240025102A03D14FF00F
:1030A0002046736E09E0B2F5807F03D1194E361DBC
:1030B000336802E0174E2436336803EA010403EA5A
:1030C000D10514B10DB1012000E0002070BD102821
:1030D00008D14FF02042526E22EAD1024FF0204335
:1030E0005A6615E0B0F5807F09D10A4A121D1268B0
:1030F00022EAD1024FF02043C3F8842008E0054AB9
:103100002432126822EAD1024FF02043C3F8A420EF
:1031100070470000800000A0BFFF0F0010B50446FC
:10312000CC48844208D10121042000F02DFB00216D
:10313000042000F029FB46E0C748844208D1012161
:10314000082000F021FB0021082000F01DFB3AE0E0
:10315000C248844208D10121102000F015FB002153
:10316000102000F011FB2EE0BD48844208D101215F
:10317000202000F009FB0021202000F005FB22E0C8
:10318000B848844208D10121402000F0FDFA002116
:10319000402000F0F9FA16E0B348844208D101213A
:1031A000802000F0F1FA0021802000F0EDFA0AE022
:1031B000AE48844207D10121801500F0E5FA0021D4
:1031C000A01500F0E1FA10BD10B50121084600F08D
:1031D000DBFA0021012000F0D7FA10BD2DE9F04103
:1031E000024600250026002000230024002791F835
:1031F00003C00CF00F0591F803C00CF0100CBCF1EB
:10320000000F03D091F802C04CEA050591F800C008
:10321000BCF1000F31D0146800202BE04FF0010CFE
:103220000CFA00F3B1F800C00CEA03069E4220D16C
:1032300083004FF00F0C0CFA03F7BC4305FA03FCB4
:103240004CEA040491F803C0BCF1280F06D14FF0FA
:10325000010C0CFA00FCC2F814C00AE091F803C09B
:10326000BCF1480F05D14FF0010C0CFA00FCC2F87C
:1032700010C0401C0828D1D31460B1F800C0BCF1C4
:10328000FF0F34DD546800202EE000F1080C4FF0F1
:10329000010808FA0CF3B1F800C00CEA03069E42DC
:1032A00021D183004FF00F0C0CFA03F7BC4305FA51
:1032B00003FC4CEA040491F803C0BCF1280F05D1CB
:1032C00000F1080C08FA0CF8C2F8148091F803C059
:1032D000BCF1480F07D100F1080C4FF0010808FAC3
:1032E0000CF8C2F81080401C0828CED35460BDE80A
:1032F000F0814FF6FF710180022181700421C170BD
:1033000070470246002093680B400BB1012000E09B
:10331000002070470146886880B27047024600204E
:10332000D3680B400BB1012000E00020704701463C
:10333000C86880B2704701617047416170470AB147
:10334000016100E041617047C16070474FF4803215
:103350000A438261816182618269826970470246A3
:103360000020434B18684FF68073184040EA021063
:1033700008433F4B186070473E49C8617047F0B53D
:103380000A46002300240021002500F00046B6F183
:10339000004F02D1364EF16901E0354E7168C0F33D
:1033A000034583B200F44016B6F5401F08D121F062
:1033B00070612F4E766826F070662D4F7E6012E0A9
:1033C00000F48016B6F5801F06D1032606FA05F430
:1033D000A14341F0706106E0460D360103FA06F69E
:1033E000B14341F0706122B1460D360103FA06F691
:1033F000314300F00046B6F1004F02D11C4EF1619E
:1034000001E01B4E7160F0BD30B500228B071C0F30
:103410000F2303FA04F2164B08338C1053F82430B0
:103420009343134C08348D1044F8253023468C10F8
:1034300053F824308C07240F00FA04F423430C4C77
:1034400008348D1044F8253030BD0A49DC3108605D
:103450007047000000080140000C014000100140CE
:103460000014014000180140001C014000200140F0
:103470000000014000002042DF48006840F00100E9
:10348000DD49086008464068DC490840DA49486080
:1034900008460068DA490840D749086008460068CD
:1034A00020F4802008600846406820F4FE00486050
:1034B0004FF41F0088607047CF49096821F48031BC
:1034C000CD4A11601146096821F480211160B0F5E0
:1034D000803F03D0B0F5802F0ED106E0C6490968C1
:1034E00041F48031C44A116007E0C349096841F4DE
:1034F000A021C14A116000E000BF00BF704710B5B5
:1035000001460022002300204A11012A02D1BA4CB0
:10351000236806E0022A02D1B74C236A01E0B64CC8
:10352000636A01F01F02012494401C400CB1012089
:1035300000E0002010BD38B50020009000240025D8
:1035400000BF3120FFF7DBFF05460098401C0090CC
:103550000098B0F5A06F01D0002DF2D03120FFF718
:10356000CEFF08B1012400E00024204638BD01460A
:103570000020A14A106820F0F80040EAC100106065
:103580007047A04908607047024600209A4B58686F
:1035900020F47C1042EA01031843974B58607047AF
:1035A00098490866704701460020934A506820F009
:1035B00003000843506070478F48406800F00C00DB
:1035C0007047014600208C4A506820F0F000084304
:1035D0005060704701460020874A506820F4E06040
:1035E00008435060704701460020834A506820F429
:1035F000605040EAC1005060704729B17E4A527A5B
:1036000002437D4B5A7204E07B4A527A82437A4BE2
:103610005A7270477B49D8310860704701460020D4
:10362000754A506820F440400843506070470021BC
:10363000714A20321170704A82F82010012802D09D
:1036400004280AD104E001216B4A2032117005E000
:103650000521694A2032117000E000BF00BF7047A9
:103660006949086070476449096A0143624A116206
:103670007047654944390860704730B50021002221
:10368000002400235C4D6D6805F00C0121B1042974
:1036900005D0082923D105E05C4D056022E05B4D93
:1036A00005601FE0544D6D6805F47012524D6D6851
:1036B00005F48034022505EB92421CB9544D554364
:1036C00005600BE04C4D6D6805F400351DB1504DA3
:1036D0005543056002E04D4D5543056002E04B4DFA
:1036E000056000BF00BF444D6D6805F0F001090999
:1036F000484D6B5C0568DD4045603F4D6D6805F4E5
:10370000E061090A434D6B5C4568DD4085603A4DD8
:103710006D6805F46051C90A3E4D6B5C4568DD403B
:10372000C560354D6D6805F44041890B3A4D6B5CC1
:10373000C568B5FBF3F5056130BD29B12E4A526964
:1037400002432D4B5A6104E02B4A526982432A4BB3
:103750005A61704729B1284A92690243264B9A61FF
:1037600004E0254A92698243234B9A61704729B14C
:10377000214AD2690243204BDA6104E01E4AD26931
:1037800082431D4BDA61704729B11B4AD26802435C
:10379000194BDA6004E0184AD2688243164BDA60AB
:1037A000704729B1144A12690243134B1A6104E0AD
:1037B000114A12698243104B1A617047124940390D
:1037C000086070470F49C86470470B49C87170475B
:1037D0000948406A40F080700749486270470146D6
:1037E0000020054A92680A400AB1012000E000204A
:1037F0007047014988727047001002400000FFF8CE
:10380000FFFFF6FE000042428004424200127A00AE
:1038100000093D00240000203400002010B50446BB
:10382000FB48844209D101218803FFF7ADFF002145
:103830004FF48040FFF7A8FF32E0F648844209D1F8
:1038400001214804FFF7ADFF00214FF40030FFF7DE
:10385000A8FF25E0F048844209D101218804FFF740
:10386000A0FF00214FF48020FFF79BFF18E0EB48FA
:10387000844209D10121C804FFF793FF00214FF4CE
:103880000020FFF78EFF0BE0E548844208D10121BC
:103890000805FFF786FF00214FF48010FFF781FF36
:1038A00010BD2DE9F04786B005460E460024A2461D
:1038B00000BFA1460027B08900B100BF2F462C8A67
:1038C0004CF6FF700440F08804432C82AC894EF61D
:1038D000F3100440B08831890843718908430443D8
:1038E000AC81AC8A4FF6FF400440B0890443AC82FF
:1038F00001A8FFF7C2FEC648874202D1DDF810A03A
:1039000001E0DDF80CA0A88900F4004040B10AEB0A
:10391000CA0000EB0A1031684900B0FBF1F807E07B
:103920000AEBCA0000EB0A1031688900B0FBF1F81D
:103930006420B8FBF0F004012009642101FB108928
:10394000A88900F4004040B1322000EBC900B0FB70
:10395000F1F000F00700044308E0322000EB09100A
:103960006421B0FBF1F000F00F0004432C8106B09D
:10397000BDE8F0874FF41651016000218180C180BD
:1039800001810C21418100218181704710B50246DF
:103990000020108A4FF2FF0318400B884C88234305
:1039A0008C882343CC8823431843108210BD002108
:1039B000018041808180C180704721B1828942F4B9
:1039C0000052828104E082894DF6FF731A408281A1
:1039D0007047F0B50346002400260025002040F67D
:1039E0006A17B94200D100BF1846C1F3421401F072
:1039F0001F06012707FA06F5012C01D10C3004E05F
:103A0000022C01D1103000E014301AB107682F43A6
:103A1000076002E00768AF430760F0BD1AB1838A10
:103A20000B43838202E0838A8B4383827047028A3E
:103A30004FF6F0731A400282028A0A4302827047EC
:103A400082894FF2FF731A40828182890A43828100
:103A5000704721B1828942F00202828104E08289AA
:103A60004FF6FD731A4082817047028A4FF6DF736A
:103A70001A400282028A0A430282704721B1028AF6
:103A800042F48042028204E0028A4BF6FF731A403D
:103A900002827047C1F3080282807047014688881D
:103AA000C0F308007047818941F0010181817047AE
:103AB000028BD2B20283028B42EA01220283704758
:103AC000028B02F47F420283028B0A430283704717
:103AD00021B1828A42F02002828204E0828A4FF67B
:103AE000DF731A408282704721B1828A42F010024D
:103AF000828204E0828A4FF6EF731A408282704716
:103B000021B1828A42F00802828204E0828A4FF662
:103B1000F7731A408282704721B1828942F40042D1
:103B2000828103E08289C2F30E028281704721B153
:103B3000828A42F40062828204E0828A4FF2FF733A
:103B40001A4082827047828A4FF6FB731A40828243
:103B5000828A0A438282704721B1828A42F002023D
:103B6000828204E0828A4FF6FD731A408282704797
:103B700002460020B1F5007F00D100BF13880B4042
:103B80000BB1012000E00020704701F40072B2F593
:103B9000007F00D100BFCA430280704770B5024663
:103BA000002400230025002040F66A16B14200D10F
:103BB00000BFC1F3421501F01F03012606FA03F30B
:103BC000012D02D19689334006E0022D02D1168ADA
:103BD000334001E0968A33400C12012606FA04F4C1
:103BE0001688344013B10CB1012000E0002070BDF4
:103BF00010B50022002340F66A14A14200D100BF94
:103C00000A1201249440A3B2DC43048010BD0000DA
:103C1000003801400044004000480040004C004093
:103C2000005000400CB50020019000906C480068E6
:103C300040F480306A49086000BF6948006800F4B9
:103C4000003000900198401C0190009818B901982C
:103C5000B0F5A06FF1D16248006800F4003010B1F7
:103C60000120009001E0002000900098012843D13D
:103C70005C48006840F010005A4908600846006837
:103C800020F0030008600846006840F00200086069
:103C900053484068524948600846406848600846B2
:103CA000406840F4806048600846406820F47C101A
:103CB00048600846406840F4E810486008460068DC
:103CC00040F08070086000BF4548006800F0007058
:103CD0000028F9D04248406820F00300404948607D
:103CE0000846406840F00200486000BF3C48406819
:103CF00000F00C000828F9D10CBD10B5FFF792FFB9
:103D000010BD10B53648006840F001003449086025
:103D10000846406834490840314948600846006810
:103D2000324908402E4908600846006820F4802087
:103D300008600846406820F4FE0048604FF41F0009
:103D40008860FFF7DAFF4FF000602949086010BD76
:103D500010B5002100200022214B5B6803F00C010C
:103D600021B1042906D0082928D107E0214B224C93
:103D7000236027E01F4B204C236023E0184B5B6837
:103D800003F47010164B5B6803F48032022303EBDC
:103D9000904022B9194B4343174C23600DE0104B60
:103DA0005B6803F4003323B1144B4343124C23608C
:103DB00003E0104B4343104C236003E00D4B0E4CCB
:103DC000236000BF00BF064B5B68C3F303130C4CBA
:103DD000E15C094B1B68CB40074C236010BD000021
:103DE00000100240002002400000FFF8FFFFF6FE36
:103DF00008ED00E000127A003800002000093D00C4
:103E00003C0000202DE9FE4F81EA030404F0004449
:103E100021F0004100944FF0000B23F0004350EAE2
:103E200001045ED052EA03045BD0C3F30A54C1F329
:103E30000A552C44A4F2F3340194A0FB0254C1F3BC
:103E4000130141F48011C3F3130343F4801301FB06
:103E5000024400FB034E840A970A44EA815447EA6D
:103E60008357A4FB076802958D0A05FB07854FEA77
:103E7000932C04FB0C542705029D4FEA065847EA91
:103E80001637B5EB08056EEB070C870E920E47EA66
:103E9000811742EA8312A7FB0201B6EB0B0164EB28
:103EA00000042B0D43EA0C335E1844EB1C50DA4639
:103EB0005146E7FB0201C5F313044FEA0B3343EA13
:103EC00014534FEA0432019C43EA0603A4F10C04A4
:103ED0000294009CCDE900B400F07AF803B0BDE88C
:103EE000F08F00200146F9E70EB540F23341029110
:103EF0000021CDE900110A460B4600F069F803B035
:103F000000BDC1F30A5210B5C1F3130140F2FF33F3
:103F100041F480119A4201DA002010BD40F233438F
:103F20009A42A2F2334203DC524200F034F810BD50
:103F3000904010BD2DE9F05F0546002092469B465B
:103F400088460646814640241BE0284641464746AF
:103F5000224600F020F853465A46C01A914110D329
:103F600011461846224600F093F82D1A67EB010817
:103F70004F4622460120002100F08AF817EB000985
:103F80004E41201EA4F10104DFDC484631462A469A
:103F90004346BDE8F09F202A04DB203A21FA02F0D4
:103FA0000021704721FA02F3D040C2F12002914073
:103FB00008431946704710B5002B08DA401C41F140
:103FC000000192185B411A4301D120F0010010BD9D
:103FD0002DE9F04D92469B4611B1B1FA81F202E013
:103FE000B0FA80F22032904600F052F804460F46B4
:103FF00040EA0A0041EA0B0153465A46084313D0EF
:10400000114653EA010019D0C8F140025046FFF7AB
:10401000C2FF05460E4650465946424600F038F863
:10402000084305D0012004E020463946BDE8F08D64
:104030000020054346EAE0762C4337430A9863059F
:10404000E40AA0EB08000022FD0A44EA47540A30C3
:1040500002D500200146E9E7010510196941DDE9B3
:10406000084500196941BDE8F04DA4E7064C074D2D
:1040700006E0E06840F0010394E807009847103438
:10408000AC42F6D3FCF758F86C5B00088C5B000878
:10409000202A04DB203A00FA02F100207047914008
:1040A000C2F1200320FA03F3194390407047000047
:1040B0000FB4054B10B503A9044A029800F018F894
:1040C00010BC5DF814FB00002B0400084C0000201D
:1040D00002E008C8121F08C1002AFAD170477047D1
:1040E000002001E001C1121F002AFBD1704700002F
:1040F0002DE9FF4F8DB09B460F460446002606E093
:1041000025280BD05A460F999047641C761C2078BE
:104110000028F5D111B03046BDE8F08F0025A84643
:104120000122974900E0054314F8013F203B02FAC1
:1041300003F00842F7D120782E2817D114F8010F88
:1041400045F004052A280ED06FF02F022078A0F148
:10415000300109290AD808EB880102EB410100EB84
:104160000108641CF2E757F8048B641C20786C2863
:104170000DD004DC4C2812D06A2811D104E0742838
:104180000DD07A280CD10AE045F4001507E06178DB
:1041900045F48015814202D1641C05F58015641C2C
:1041A0002278692A45D008DC002AB3D0582A67D083
:1041B000632A10D0642A08D13BE0702A65D0732AA4
:1041C00013D0752A5AD0782A5AD010465A460F99D9
:1041D0009047761CD1E017F8040B8DF80000002002
:1041E0008DF80100E946012003E057F8049B4FF0E9
:1041F000FF3069074FF0000501D40AE06D1C45450A
:104200000DDA8542FADB19F805100029F6D106E02F
:104210006D1C8542FCDB19F805100029F8D12E44ED
:1042200004E019F8010B5A460F9990476D1EF8D219
:10423000A3E00A200021CDE90801C5F302500228BD
:104240000BD001CFC11700290DDA4FF0000CD0EBD5
:104250000C006CEB01012D2308E0FF1D27F0070780
:10426000F7E80201EFE72B0504D52B238DF8283062
:1042700001233BE0EB0739D02023F7E70A2000E0D9
:1042800010200021CDE9080107E01020002145F0B1
:104290000405CDE908014FF00808C5F302500228D3
:1042A0000FD001CF00214FF0000A2B071FD5702A35
:1042B0000DD0DDE908C38CF0100C5CEA030C0CD0C7
:1042C00015E0FF1D27F00707F7E80201EBE74022A2
:1042D0008DF828204FF0010A0BE050EA010306D0C8
:1042E00030238DF828308DF8292002239A46582A49
:1042F00004D024A20DF120090B9209E026A2F9E7CF
:10430000DDE90823FFF716FE0B9B9B5C09F8013DD6
:1043100050EA0102F4D1ADEB0900203008906807A3
:1043200001D44FF001080899884502DDA8EB01008F
:1043300000E000208046002506E00AA85A46405DBD
:104340000F9990476D1C761C5545F6DB04E0302034
:104350005A460F999047761CB8F10001A8F1010860
:10436000F5DC05E019F8010B5A460F999047761CC9
:104370000899481E08900029F4DC641CC7E6000078
:10438000092801003031323334353637383961622B
:1043900063646566000000003031323334353637EF
:1043A0003839414243444546000000000000000007
:1043B0000000000000000000000000003F4000007E
:1043C000000000000000300040003000400000000D
:1043D00009000BC03D000BC03D00090018C024407F
:1043E0007FE0224031800000180024C01B000D80B7
:1043F0003240018003801C4027401C800740004061
:10440000100060000000000000000000000000003C
:1044100000001F80204040200000402020401F80DE
:1044200000000000090006001F80060009000000CF
:10443000040004003F80040004000000001000603D
:10444000000000000000000004000400040004005C
:104450000400000000000040000000000000000018
:10446000002001C006003800400000001F802040EE
:10447000204020401F800000000010403FC000404E
:104480000000000018C021402240244018400000D5
:1044900010802040244024401B80000002000D00BA
:1044A00011003FC0014000003C80244024402440D3
:1044B000238000001F8024402440344003800000FB
:1044C0003000200027C03800200000001B8024405E
:1044D000244024401B8000001C0022C022402240B7
:1044E0001F800000000000000840000000000000E5
:1044F0000000000004600000000000000000040054
:104500000A0011002080404009000900090009004C
:104510000900000000004040208011000A00040053
:104520001800200023402400180000001F802040B5
:10453000274029401F400000004007C039000F00FD
:1045400001C0004020403FC0244024401B800000A8
:104550001F802040204020403080000020403FC08D
:10456000204020401F80000020403FC024402E40BB
:1045700030C0000020403FC024402E00300000002A
:104580000F001080204022403380020020403FC0B6
:10459000040004003FC02040204020403FC0204095
:1045A000204000000060202020203FC0200020008C
:1045B00020403FC024400B0030C0204020403FC07E
:1045C00020400040004000C03FC03C0003C03C0011
:1045D0003FC0000020403FC00C4023003FC02000EF
:1045E0001F802040204020401F80000020403FC00E
:1045F00024402400180000001F802140214020E0BA
:104600001FA0000020403FC02440260019C00040E9
:1046100018C0244024402240318000003000204057
:104620003FC020403000000020003F80004000409C
:104630003F80200020003E0001C00700380020001D
:10464000380007C03C0007C038000000204039C0D7
:10465000060039C0204000002000384007C0384024
:1046600020000000304021C02640384020C000001B
:10467000000000007FE040204020000000007000AB
:104680000C000380004000000000402040207FE03C
:10469000000000000000200040002000000000009A
:1046A00000100010001000100010001000000000AA
:1046B00040000000000000000000028005400540AE
:1046C00003C0004020003FC00440044003800000BD
:1046D0000000038004400440064000000000038006
:1046E000044024403FC000400000038005400540D6
:1046F00003400000000004401FC02440244020006C
:10470000000002E0055005500650042020403FC044
:104710000440040003C000400000044027C00040E3
:104720000000000000100010041027E0000000004E
:1047300020403FC00140070004C00440204020400A
:104740003FC000400040000007C0040007C0040054
:1047500003C00000044007C00440040003C0004040
:10476000000003800440044003800000041007F0B0
:104770000450044003800000000003800440045003
:1047800007F00010044007C00240040004000000CD
:10479000000006400540054004C000000000040081
:1047A0001F800440004000000400078000400440D7
:1047B00007C000400400070004C001800600040098
:1047C000060001C0070001C006000000044006C04A
:1047D000010006C0044000000410071004E001803E
:1047E000060004000000044005C00640044000002C
:1047F0000000000004007BE04020000000000000FA
:104800000000FFF000000000000040207BE00400FA
:104810000000000040008000400020002000400018
:104820000000000000000000000000000000000088
:104830000000000000001FCC000C00000000000081
:104840000000080030006000080030006000000038
:10485000022003FC1E20022003FC1E200220000078
:1048600000000E1811043FFF10840C7800000000B7
:104870000F0010840F3800C00778188400780000FB
:1048800000780F8410C411240E9800E400840008FE
:104890000800680070000000000000000000000038
:1048A00000000000000007E018182004400200008B
:1048B000000040022004181807E00000000000007B
:1048C0000240024001800FF00180024002400000DF
:1048D0000080008000800FF80080008000800000D1
:1048E0000001000D000E00000000000000000000AC
:1048F0000000008000800080008000800080008038
:104900000000000C000C000000000000000000008F
:10491000000000060018006001800600180020005A
:10492000000007F0080810041004080807F0000051
:104930000000080408041FFC00040004000000003C
:1049400000000E0C10141024104411840E0C0000F2
:1049500000000C1810041104110412880C700000DF
:10496000000000E00320042408241FFC00240000B1
:1049700000001F98108411041104108810700000AA
:10498000000007F008881104110418880070000066
:1049900000001C00100010FC13001C0010000000A0
:1049A00000000E3811441084108411440E380000A9
:1049B00000000700088C10441044088807F000002D
:1049C000000000000000030C030C000000000000C9
:1049D00000000000000101060000000000000000CF
:1049E00000000080014002200410080810040000AC
:1049F00002200220022002200220022002200000C9
:104A0000000010040808041002200140008000008B
:104A100000000E001200100C106C10800F0000003F
:104A200003E00C1813E4142417C4082807D000006E
:104A30000004003C03C41C40074000E4001C0004C8
:104A400010041FFC1104110411040E8800700000F2
:104A500003E00C1810041004100410081C100000CF
:104A600010041FFC100410041004080807F00000D4
:104A700010041FFC1104110417C4100408180000CE
:104A800010041FFC1104110017C0100008000000E2
:104A900003E00C181004100410441C7800400000BF
:104AA00010041FFC10840080008010841FFC100480
:104AB0000000100410041FFC10041004000000008B
:104AC00000030001100110011FFE10001000000083
:104AD00010041FFC110403801464181C100400004F
:104AE00010041FFC1004000400040004000C00006B
:104AF00010041FFC1F0000FC1F001FFC100400001E
:104B000010041FFC0C04030000E010181FFC100030
:104B100007F00808100410041004080807F000004B
:104B200010041FFC10841080108010800F00000003
:104B300007F0081810241024101C080A07F20000BF
:104B400010041FFC1104110011C011300E0C0004E0
:104B500000000E1C11041084108410441C38000046
:104B60001800100010041FFC1004100018000000B2
:104B700010001FF810040004000410041FF81000B7
:104B800010001E0011E0001C007013801C001000BB
:104B90001FC0103C00E01F0000E0103C1FC00000E0
:104BA0001004180C163401C001C01634180C10047F
:104BB00010001C00130400FC13041C001000000073
:104BC0000804101C1064108413041C041018000046
:104BD0000000000000007FFE400240024002000092
:104BE000000030000C0003800060001C0003000087
:104BF00000004002400240027FFE00000000000072
:104C000000000000200040004000400020000000A4
:104C1000000100010001000100010001000100018C
:104C200000004000400020000000000000000000E4
:104C300000000098012401440144014400FC0004E8
:104C400010001FFC008801040104008800700000AF
:104C500000000070008801040104010400880000C5
:104C60000000007000880104010411081FFC00040A
:104C7000000000F8014401440144014400C8000060
:104C80000000010401040FFC1104110411001800BC
:104C9000000000D601290129012901C901060000EF
:104CA00010041FFC008401000100010400FC00044A
:104CB00000000104190419FC0004000400000000B5
:104CC0000000000300010101190119FE00000000AD
:104CD00010041FFC0024004001B4010C010400007A
:104CE0000000100410041FFC000400040000000079
:104CF000010401FC0104010001FC0104010000FCAD
:104D0000010401FC008401000100010400FC000416
:104D1000000000F8010401040104010400F800008F
:104D2000010101FF008501040104008800700000FA
:104D300000000070008801040104010501FF00016A
:104D40000104010401FC0084010401000180000051
:104D5000000000CC0124012401240124019800005A
:104D600000000100010007F8010401040000000038
:104D7000010001F8000400040004010801FC000423
:104D8000010001800170000C001001600180010031
:104D900001F0010C003001C00030010C01F00100F5
:104DA00000000104018C00740170018C01040000FA
:104DB000010101810171000E0018016001800100F4
:104DC00000000184010C013401440184010C000045
:104DD000000000000000000001003EFC4002400214
:104DE0000000000000000000FFFF000000000000C5
:104DF0000000400240023EFC0100000000000000F4
:104E00000000600080008000400040002000200082
:104E10000000000000000000000000000000000092
:104E20000000000000000000000000000000000082
:104E30000000000000000000000000000000000072
:104E40000000000F80380FFE380F8038000000008F
:104E50000000000000000000000000000000010051
:104E6000000600000C0000380000310000060000C1
:104E70000C000038000030000000000000000000BE
:104E800061800067F807F98000618000618000613F
:104E9000800061800067F807F980006180000000F1
:104EA00000000000000001C0E003E0F0063008044C
:104EB00018081FFFFE040E080787F00381E00000BA
:104EC0000000000001F000060C00040408060C704D
:104ED00001F9C0000E00003BE000EC1807080804D0
:104EE0000C180003E00000000001E00007F003F8E8
:104EF00018041C0804170807E1D003C0E00023B021
:104F0000003C080020080000100000000000000124
:104F100000003100003200001C0000000000000012
:104F20000000000000000000000000000000000081
:104F30000000000000000000000000000000000071
:104F40007F0001FFC00780F00C0018100004200053
:104F5000020000000000002000021000040C0018F5
:104F60000780F001FFC0007F00000000000000008B
:104F70000000000000000000000000004200006689
:104F800000006600003C0000180003FFC00018008D
:104F9000003C0000660000660000420000000000C7
:104FA000080000080000080000080000080001FFD9
:104FB000C000080000080000080000080000080009
:104FC00000000000000100003100003200001C0061
:104FD00000000000000000000000000000000000D1
:104FE00000000000000000000800000800000800A9
:104FF0000008000008000008000008000008000089
:105000000800000800000000000000000000000090
:1050100038000038000038000000000000000000E8
:105020000000000000000000000000000000000080
:10503000000600001C000070000180000E00003817
:105040000000C0000700001C00003000000000004D
:10505000000000007F8001FFE0038070060018045C
:10506000000804000806001803807001FFE0007FBC
:10507000800000000000000000000100080100089E
:1050800001000803FFF807FFF8000008000008000F
:10509000000800000000000000000001C03802C04D
:1050A00058040098040118040218040418061C1877
:1050B00003F81801E0F80000000000000000000103
:1050C000C0E003C0F004000804080804080806183B
:1050D0000803F41801E7F00001E000000000000000
:1050E000000000000300000D00001100006100003E
:1050F000810803010807FFF80FFFF800010800010D
:10510000080000000000000000E007FCD0060808CE
:10511000061008061008061008061838060FF006D4
:1051200007C0000000000000000000003F8001FFF9
:10513000E003843002081804100804100804100862
:10514000071810030FF00007C00000000000000067
:10515000000003C0000700000600000600F8060774
:10516000F806180006E00007000006000000000036
:1051700000000001E1E003F7F00634100418080411
:105180001808040C08040C0806161803F3F001C1F3
:10519000E000000000000000F80003FC30030638C7
:1051A0000402080402080402080404100308F001C1
:1051B000FFC0007F000000000000000000000000B1
:1051C00000000000000000007038007038007038E7
:1051D00000000000000000000000000000000000CF
:1051E000000000000000000000000000301A003045
:1051F0001C00000000000000000000000000000093
:105200000000000000000008000014000022000060
:1052100041000080800100400200200400100800CE
:105220000800000000000000210000210000210013
:1052300000210000210000210000210000210000C9
:105240002100002100000000000000000000080014
:10525000080400100200200100400080800041008E
:1052600000220000140000080000000000000003FD
:10527000C00004C000040000080038080F38080807
:10528000380810000C300007E00003C000000000E8
:10529000000000003F8000FFE0038070020F100656
:1052A000708804C088048308047F8802C0900301CA
:1052B0002000FE400000080000180001F8003E0831
:1052C00001C20007020007E20000FE00001FC80044
:1052D00001F800003800000804000807FFF807FF85
:1052E000F804080804080804080804080806180850
:1052F00003F41801E7F00001E000000000000000E6
:105300003F8001FFE00380700200180400080400E1
:10531000080400080400100600200780C0000000F8
:1053200004000807FFF807FFF80400080400080459
:10533000000804001802001003807001FFE0007FE5
:105340008000000004000807FFF807FFF8040808C1
:10535000040808040808040808043E0804000806B5
:10536000001801006000000004000807FFF807FFB4
:10537000F8040808040800040800040800043E00BB
:105380000600000600000180000000000000000090
:105390003F8001FFE003807006001804000804024B
:1053A000080402080203F00783F000020000020074
:1053B00004000807FFF807FFF804080800080000C9
:1053C000080000080000080004080807FFF807FFAD
:1053D000F8040008000000000000040008040008B1
:1053E00004000807FFF807FFF80400080400080499
:1053F000000800000000000000000000000600009F
:105400000700000104000104000104000307FFFE7F
:1054100007FFFC040000040000040000040008076B
:10542000FFF807FFF8040C08001800003E0004C74E
:10543000800503C80600F8040038040018000008BE
:1054400004000807FFF807FFF80400080000080040
:105450000008000008000008000008000018000014
:105460006000000004000807FFF807800807FC0040
:10547000007FC00003F80007C0007800078008071D
:10548000FFF807FFF804000804000807FFF807000A
:105490000803C00000E000003800001E0000070004
:1054A0000001C00400F007FFF80400000000000045
:1054B0007F8001FFE00380700600180400080400EC
:1054C0000806001803003001FFE0007F80000000A4
:1054D00004000807FFF807FFF804040804040004A8
:1054E0000400040400040400060C0003F80001F0AA
:1054F00000000000000000007F8001FFE0038070DA
:105500000600880400880400C806003C03003E0131
:10551000FFE6007F8400000004000807FFF807FF93
:10552000F8040808040800040C00040F00040BC071
:105530000610F003F03801E0080000080000000148
:10554000E0F803F030063010041808041808040CC2
:1055500008040C080206180207F00781E0000000AA
:105560000180000600000400000400000400080799
:10557000FFF807FFF804000804000004000006001C
:105580000001800004000007FFE007FFF00400189E
:1055900000000800000800000800000800000804DF
:1055A000001007FFE004000004000006000007E010
:1055B0000007FE00041FE00001F80000380001E0D1
:1055C000043E0007C00006000004000004000007BD
:1055D000E00007FFC0041FF80007C007F80007FF3E
:1055E00080043FF80007C004F80007000004000032
:1055F00000000004000806001807C07805F1C80084
:105600003E00001F800463E80780F80600180400CD
:105610000800000004000006000007800007E00802
:10562000047C08001FF80007F800180804E00807C9
:105630000000060000040000000000010008060051
:10564000380400F80403E8040F08047C0805F00897
:1056500007C00807001804006000000000000000F8
:1056600000000000000000000000003FFFFE2000DE
:1056700002200002200002200002200002000000A0
:1056800000000000000008000007000000C000004B
:1056900038000006000001C000003000000E0000CD
:1056A00001000000000000000000200002200002B5
:1056B0002000022000022000023FFFFE0000000048
:1056C00000000000000000000000000000000000DA
:1056D0000008000010000030000020000030000032
:1056E00010000008000000000000000000000100A1
:1056F00000010000010000010000010000010000A5
:105700000100000100000100000100000100000193
:105710000000000000000000002000002000001039
:105720000000100000000000000000000000000069
:10573000000000000000000000F00019F8001B1835
:10574000002208002608002408002410003FF8006A
:105750001FF800000800001800000004000007FF08
:10576000F80FFFF0001818001008002008002008AB
:10577000003018001FF0000FC00000000000000003
:1057800007C0001FF000183000200800200800208B
:1057900008003C08001C1000006000000000000031
:1057A0000000000007C0001FF000381800200800AB
:1057B000200800200804101007FFF80FFFF0000079
:1057C000100000000000000000000007C0001FF0F3
:1057D00000123000221800220800220800320800BF
:1057E0001E10000E2000000000000000200000201D
:1057F0000800200801FFF803FFF80620080420082D
:105800000420080720000300000000000000000042
:10581000000E000E6E001FF30031B10020B1002019
:10582000B1003191001F13002E1E00200E00300029
:1058300000000004000807FFF80FFFF80010080040
:105840002000002000002008003FF8001FF80000A2
:1058500008000000000000000000002008002008F0
:10586000002008063FF8063FF80000080000080086
:105870000008000000000000000000000000000020
:1058800003000003002001002001002003063FFE6A
:10589000063FFC00000000000000000000000004C3
:1058A000000807FFF80FFFF8000188000300002F31
:1058B000C00038F800203800200800000800000070
:1058C00000000000000004000804000804000807AD
:1058D000FFF80FFFF80000080000080000080000B3
:1058E00000000000002008003FF8003FF80010080A
:1058F000002000003FF8003FF800100800200000E2
:105900003FF8003FF8000008000000002008003FBA
:10591000F8003FF8001008001000002000002008E8
:10592000003FF8001FF80000080000000000000021
:1059300007C0000FF00018300030080020080020D9
:1059400008003008001830000FF00007C000000009
:10595000000000002001003FFF003FFF0010110089
:105960002009002008002008003038001FF0000F38
:10597000C00000000000000007C0001FF000381841
:10598000002008002008002009001011001FFF005F
:105990003FFF000001000000002008002008002058
:1059A00008003FF8003FF800080800100800200831
:1059B0000020000030000030000000000000000067
:1059C0000000000C78001E18003308002308002196
:1059D000080021880021980030F0003860000000A5
:1059E00000000000200000200000200000FFF00365
:1059F000FFF8002008002008002008000030000008
:105A000000000000000000002000003FF0007FF8D0
:105A1000000018000008000008002010003FF800F7
:105A20007FF00000100000000000000020000030A7
:105A300000003C00003F800023F000007800007070
:105A4000002380003C000030000020000020000007
:105A50003C00003FE00023F80000E0002700003E8B
:105A600000003FE00021F80001E0003E00002000BF
:105A7000000000002008002008003838003E6800C0
:105A800027800003C8002CF80038380020180020B8
:105A900008000000000000002000003003003C016E
:105AA000003F830023EC000070002380003C0000D6
:105AB000200000200000000000000000000000386E
:105AC000080020380020F80023E8002F88003E0856
:105AD00000380800201800007000000000000000DE
